{
  "contractName": "Voting",
  "abi": [
    {
      "inputs": [],
      "stateMutability": "nonpayable",
      "type": "constructor"
    },
    {
      "anonymous": false,
      "inputs": [
        {
          "indexed": true,
          "internalType": "address",
          "name": "delegator",
          "type": "address"
        },
        {
          "indexed": true,
          "internalType": "address",
          "name": "delegate",
          "type": "address"
        }
      ],
      "name": "Delegated",
      "type": "event"
    },
    {
      "anonymous": false,
      "inputs": [
        {
          "indexed": true,
          "internalType": "address",
          "name": "voter",
          "type": "address"
        },
        {
          "indexed": false,
          "internalType": "uint256",
          "name": "candidateId",
          "type": "uint256"
        }
      ],
      "name": "Voted",
      "type": "event"
    },
    {
      "inputs": [
        {
          "internalType": "uint256",
          "name": "",
          "type": "uint256"
        }
      ],
      "name": "candidates",
      "outputs": [
        {
          "internalType": "uint256",
          "name": "id",
          "type": "uint256"
        },
        {
          "internalType": "string",
          "name": "name",
          "type": "string"
        },
        {
          "internalType": "uint256",
          "name": "voteCount",
          "type": "uint256"
        }
      ],
      "stateMutability": "view",
      "type": "function",
      "constant": true
    },
    {
      "inputs": [],
      "name": "candidatesCount",
      "outputs": [
        {
          "internalType": "uint256",
          "name": "",
          "type": "uint256"
        }
      ],
      "stateMutability": "view",
      "type": "function",
      "constant": true
    },
    {
      "inputs": [
        {
          "internalType": "address",
          "name": "",
          "type": "address"
        }
      ],
      "name": "voters",
      "outputs": [
        {
          "internalType": "bool",
          "name": "voted",
          "type": "bool"
        },
        {
          "internalType": "uint256",
          "name": "candidateId",
          "type": "uint256"
        },
        {
          "internalType": "uint256",
          "name": "weight",
          "type": "uint256"
        },
        {
          "internalType": "address",
          "name": "delegate",
          "type": "address"
        }
      ],
      "stateMutability": "view",
      "type": "function",
      "constant": true
    },
    {
      "inputs": [],
      "name": "getVotesForCandidates",
      "outputs": [
        {
          "internalType": "uint256[]",
          "name": "",
          "type": "uint256[]"
        }
      ],
      "stateMutability": "view",
      "type": "function",
      "constant": true
    },
    {
      "inputs": [
        {
          "internalType": "address",
          "name": "_delegate",
          "type": "address"
        }
      ],
      "name": "delegate",
      "outputs": [],
      "stateMutability": "nonpayable",
      "type": "function"
    },
    {
      "inputs": [
        {
          "internalType": "uint256",
          "name": "_candidateId",
          "type": "uint256"
        }
      ],
      "name": "vote",
      "outputs": [],
      "stateMutability": "nonpayable",
      "type": "function"
    },
    {
      "inputs": [
        {
          "internalType": "address",
          "name": "_voter",
          "type": "address"
        },
        {
          "internalType": "uint256",
          "name": "_weight",
          "type": "uint256"
        }
      ],
      "name": "reweight",
      "outputs": [],
      "stateMutability": "nonpayable",
      "type": "function"
    },
    {
      "inputs": [
        {
          "internalType": "address",
          "name": "_voter",
          "type": "address"
        }
      ],
      "name": "getDelegatedVotes",
      "outputs": [
        {
          "internalType": "uint256",
          "name": "",
          "type": "uint256"
        }
      ],
      "stateMutability": "view",
      "type": "function",
      "constant": true
    },
    {
      "inputs": [],
      "name": "getCandidates",
      "outputs": [
        {
          "components": [
            {
              "internalType": "uint256",
              "name": "id",
              "type": "uint256"
            },
            {
              "internalType": "string",
              "name": "name",
              "type": "string"
            },
            {
              "internalType": "uint256",
              "name": "voteCount",
              "type": "uint256"
            }
          ],
          "internalType": "struct Voting.Candidate[]",
          "name": "",
          "type": "tuple[]"
        }
      ],
      "stateMutability": "view",
      "type": "function",
      "constant": true
    }
  ],
  "bytecode": "0x60806040523480156200001157600080fd5b50620000586040518060400160405280600b81526020017f43616e6469646174652031000000000000000000000000000000000000000000815250620000a460201b60201c565b6200009e6040518060400160405280600b81526020017f43616e6469646174652032000000000000000000000000000000000000000000815250620000a460201b60201c565b62000515565b60026000815480929190620000b99062000171565b9190505550600160405180606001604052806002548152602001838152602001600081525090806001815401808255809150506001900390600052602060002090600302016000909190919091506000820151816000015560208201518160010190816200012891906200042e565b5060408201518160020155505050565b7f4e487b7100000000000000000000000000000000000000000000000000000000600052601160045260246000fd5b6000819050919050565b60006200017e8262000167565b91507fffffffffffffffffffffffffffffffffffffffffffffffffffffffffffffffff8203620001b357620001b262000138565b5b600182019050919050565b600081519050919050565b7f4e487b7100000000000000000000000000000000000000000000000000000000600052604160045260246000fd5b7f4e487b7100000000000000000000000000000000000000000000000000000000600052602260045260246000fd5b600060028204905060018216806200024057607f821691505b602082108103620002565762000255620001f8565b5b50919050565b60008190508160005260206000209050919050565b60006020601f8301049050919050565b600082821b905092915050565b600060088302620002c07fffffffffffffffffffffffffffffffffffffffffffffffffffffffffffffffff8262000281565b620002cc868362000281565b95508019841693508086168417925050509392505050565b6000819050919050565b60006200030f62000309620003038462000167565b620002e4565b62000167565b9050919050565b6000819050919050565b6200032b83620002ee565b620003436200033a8262000316565b8484546200028e565b825550505050565b600090565b6200035a6200034b565b6200036781848462000320565b505050565b5b818110156200038f576200038360008262000350565b6001810190506200036d565b5050565b601f821115620003de57620003a8816200025c565b620003b38462000271565b81016020851015620003c3578190505b620003db620003d28562000271565b8301826200036c565b50505b505050565b600082821c905092915050565b60006200040360001984600802620003e3565b1980831691505092915050565b60006200041e8383620003f0565b9150826002028217905092915050565b6200043982620001be565b67ffffffffffffffff811115620004555762000454620001c9565b5b62000461825462000227565b6200046e82828562000393565b600060209050601f831160018114620004a6576000841562000491578287015190505b6200049d858262000410565b8655506200050d565b601f198416620004b6866200025c565b60005b82811015620004e057848901518255600182019150602085019450602081019050620004b9565b86831015620005005784890151620004fc601f891682620003f0565b8355505b6001600288020188555050505b505050505050565b6117d380620005256000396000f3fe608060405234801561001057600080fd5b50600436106100935760003560e01c806312c0cb221161006657806312c0cb221461011e5780632d35a8a21461013c5780633477ee2e1461015a5780635c19a95c1461018c578063a3ec138d146101a857610093565b8063011b938f146100985780630121b93f146100c857806306a49fce146100e457806309dac7bd14610102575b600080fd5b6100b260048036038101906100ad9190610ddf565b6101db565b6040516100bf9190610e25565b60405180910390f35b6100e260048036038101906100dd9190610e6c565b61038d565b005b6100ec6104e4565b6040516100f9919061104a565b60405180910390f35b61011c6004803603810190610117919061106c565b6105e9565b005b61012661079e565b604051610133919061115b565b60405180910390f35b61014461085c565b6040516101519190610e25565b60405180910390f35b610174600480360381019061016f9190610e6c565b610862565b604051610183939291906111c7565b60405180910390f35b6101a660048036038101906101a19190610ddf565b610924565b005b6101c260048036038101906101bd9190610ddf565b610d1f565b6040516101d2949392919061122f565b60405180910390f35b6000806000808473ffffffffffffffffffffffffffffffffffffffff1673ffffffffffffffffffffffffffffffffffffffff1681526020019081526020016000209050600073ffffffffffffffffffffffffffffffffffffffff168160030160009054906101000a900473ffffffffffffffffffffffffffffffffffffffff1673ffffffffffffffffffffffffffffffffffffffff16036102b1576040517f08c379a00000000000000000000000000000000000000000000000000000000081526004016102a8906112e6565b60405180910390fd5b3373ffffffffffffffffffffffffffffffffffffffff168373ffffffffffffffffffffffffffffffffffffffff160361031f576040517f08c379a000000000000000000000000000000000000000000000000000000000815260040161031690611378565b60405180910390fd5b6000808260030160009054906101000a900473ffffffffffffffffffffffffffffffffffffffff1673ffffffffffffffffffffffffffffffffffffffff1673ffffffffffffffffffffffffffffffffffffffff16815260200190815260200160002060020154915050919050565b60008060003373ffffffffffffffffffffffffffffffffffffffff1673ffffffffffffffffffffffffffffffffffffffff16815260200190815260200160002090508060000160009054906101000a900460ff1615610421576040517f08c379a0000000000000000000000000000000000000000000000000000000008152600401610418906113e4565b60405180910390fd5b60018160000160006101000a81548160ff02191690831515021790555081816001018190555080600201546001808461045a9190611433565b8154811061046b5761046a611467565b5b9060005260206000209060030201600201600082825461048b9190611496565b925050819055503373ffffffffffffffffffffffffffffffffffffffff167f4d99b957a2bc29a30ebd96a7be8e68fe50a3c701db28a91436490b7d53870ca4836040516104d89190610e25565b60405180910390a25050565b60606001805480602002602001604051908101604052809291908181526020016000905b828210156105e0578382906000526020600020906003020160405180606001604052908160008201548152602001600182018054610545906114f9565b80601f0160208091040260200160405190810160405280929190818152602001828054610571906114f9565b80156105be5780601f10610593576101008083540402835291602001916105be565b820191906000526020600020905b8154815290600101906020018083116105a157829003601f168201915b5050505050815260200160028201548152505081526020019060010190610508565b50505050905090565b6000811161062c576040517f08c379a00000000000000000000000000000000000000000000000000000000081526004016106239061159c565b60405180910390fd5b60008060003373ffffffffffffffffffffffffffffffffffffffff1673ffffffffffffffffffffffffffffffffffffffff1681526020019081526020016000209050600073ffffffffffffffffffffffffffffffffffffffff168160030160009054906101000a900473ffffffffffffffffffffffffffffffffffffffff1673ffffffffffffffffffffffffffffffffffffffff1614610701576040517f08c379a00000000000000000000000000000000000000000000000000000000081526004016106f890611608565b60405180910390fd5b8060000160009054906101000a900460ff1615610753576040517f08c379a000000000000000000000000000000000000000000000000000000000815260040161074a906113e4565b60405180910390fd5b816000808573ffffffffffffffffffffffffffffffffffffffff1673ffffffffffffffffffffffffffffffffffffffff16815260200190815260200160002060020181905550505050565b6060600060025467ffffffffffffffff8111156107be576107bd611628565b5b6040519080825280602002602001820160405280156107ec5781602001602082028036833780820191505090505b50905060005b60025481101561085457600181815481106108105761080f611467565b5b90600052602060002090600302016002015482828151811061083557610834611467565b5b602002602001018181525050808061084c90611657565b9150506107f2565b508091505090565b60025481565b6001818154811061087257600080fd5b906000526020600020906003020160009150905080600001549080600101805461089b906114f9565b80601f01602080910402602001604051908101604052809291908181526020018280546108c7906114f9565b80156109145780601f106108e957610100808354040283529160200191610914565b820191906000526020600020905b8154815290600101906020018083116108f757829003601f168201915b5050505050908060020154905083565b60008060003373ffffffffffffffffffffffffffffffffffffffff1673ffffffffffffffffffffffffffffffffffffffff16815260200190815260200160002090508060000160009054906101000a900460ff16156109b8576040517f08c379a00000000000000000000000000000000000000000000000000000000081526004016109af906113e4565b60405180910390fd5b3373ffffffffffffffffffffffffffffffffffffffff168273ffffffffffffffffffffffffffffffffffffffff1603610a26576040517f08c379a0000000000000000000000000000000000000000000000000000000008152600401610a1d906116eb565b60405180910390fd5b5b600073ffffffffffffffffffffffffffffffffffffffff166000808473ffffffffffffffffffffffffffffffffffffffff1673ffffffffffffffffffffffffffffffffffffffff16815260200190815260200160002060030160009054906101000a900473ffffffffffffffffffffffffffffffffffffffff1673ffffffffffffffffffffffffffffffffffffffff1614610b93576000808373ffffffffffffffffffffffffffffffffffffffff1673ffffffffffffffffffffffffffffffffffffffff16815260200190815260200160002060030160009054906101000a900473ffffffffffffffffffffffffffffffffffffffff1691503373ffffffffffffffffffffffffffffffffffffffff168273ffffffffffffffffffffffffffffffffffffffff1603610b8e576040517f08c379a0000000000000000000000000000000000000000000000000000000008152600401610b859061177d565b60405180910390fd5b610a27565b60018160000160006101000a81548160ff021916908315150217905550818160030160006101000a81548173ffffffffffffffffffffffffffffffffffffffff021916908373ffffffffffffffffffffffffffffffffffffffff16021790555060008060008473ffffffffffffffffffffffffffffffffffffffff1673ffffffffffffffffffffffffffffffffffffffff16815260200190815260200160002090508060000160009054906101000a900460ff1615610ca05781600201546001808360010154610c639190611433565b81548110610c7457610c73611467565b5b90600052602060002090600302016002016000828254610c949190611496565b92505081905550610cc0565b8160020154816002016000828254610cb89190611496565b925050819055505b8273ffffffffffffffffffffffffffffffffffffffff163373ffffffffffffffffffffffffffffffffffffffff167f4bc154dd35d6a5cb9206482ecb473cdbf2473006d6bce728b9cc0741bcc59ea260405160405180910390a3505050565b60006020528060005260406000206000915090508060000160009054906101000a900460ff16908060010154908060020154908060030160009054906101000a900473ffffffffffffffffffffffffffffffffffffffff16905084565b600080fd5b600073ffffffffffffffffffffffffffffffffffffffff82169050919050565b6000610dac82610d81565b9050919050565b610dbc81610da1565b8114610dc757600080fd5b50565b600081359050610dd981610db3565b92915050565b600060208284031215610df557610df4610d7c565b5b6000610e0384828501610dca565b91505092915050565b6000819050919050565b610e1f81610e0c565b82525050565b6000602082019050610e3a6000830184610e16565b92915050565b610e4981610e0c565b8114610e5457600080fd5b50565b600081359050610e6681610e40565b92915050565b600060208284031215610e8257610e81610d7c565b5b6000610e9084828501610e57565b91505092915050565b600081519050919050565b600082825260208201905092915050565b6000819050602082019050919050565b610ece81610e0c565b82525050565b600081519050919050565b600082825260208201905092915050565b60005b83811015610f0e578082015181840152602081019050610ef3565b60008484015250505050565b6000601f19601f8301169050919050565b6000610f3682610ed4565b610f408185610edf565b9350610f50818560208601610ef0565b610f5981610f1a565b840191505092915050565b6000606083016000830151610f7c6000860182610ec5565b5060208301518482036020860152610f948282610f2b565b9150506040830151610fa96040860182610ec5565b508091505092915050565b6000610fc08383610f64565b905092915050565b6000602082019050919050565b6000610fe082610e99565b610fea8185610ea4565b935083602082028501610ffc85610eb5565b8060005b8581101561103857848403895281516110198582610fb4565b945061102483610fc8565b925060208a01995050600181019050611000565b50829750879550505050505092915050565b600060208201905081810360008301526110648184610fd5565b905092915050565b6000806040838503121561108357611082610d7c565b5b600061109185828601610dca565b92505060206110a285828601610e57565b9150509250929050565b600081519050919050565b600082825260208201905092915050565b6000819050602082019050919050565b60006110e48383610ec5565b60208301905092915050565b6000602082019050919050565b6000611108826110ac565b61111281856110b7565b935061111d836110c8565b8060005b8381101561114e57815161113588826110d8565b9750611140836110f0565b925050600181019050611121565b5085935050505092915050565b6000602082019050818103600083015261117581846110fd565b905092915050565b600082825260208201905092915050565b600061119982610ed4565b6111a3818561117d565b93506111b3818560208601610ef0565b6111bc81610f1a565b840191505092915050565b60006060820190506111dc6000830186610e16565b81810360208301526111ee818561118e565b90506111fd6040830184610e16565b949350505050565b60008115159050919050565b61121a81611205565b82525050565b61122981610da1565b82525050565b60006080820190506112446000830187611211565b6112516020830186610e16565b61125e6040830185610e16565b61126b6060830184611220565b95945050505050565b7f5468697320766f74657220686173206e6f742064656c6567617465642074686560008201527f697220766f746521000000000000000000000000000000000000000000000000602082015250565b60006112d060288361117d565b91506112db82611274565b604082019050919050565b600060208201905081810360008301526112ff816112c3565b9050919050565b7f43616e6e6f7420717565727920796f7572206f776e2064656c65676174696f6e60008201527f2100000000000000000000000000000000000000000000000000000000000000602082015250565b600061136260218361117d565b915061136d82611306565b604082019050919050565b6000602082019050818103600083015261139181611355565b9050919050565b7f596f75206861766520616c726561647920766f74656421000000000000000000600082015250565b60006113ce60178361117d565b91506113d982611398565b602082019050919050565b600060208201905081810360008301526113fd816113c1565b9050919050565b7f4e487b7100000000000000000000000000000000000000000000000000000000600052601160045260246000fd5b600061143e82610e0c565b915061144983610e0c565b925082820390508181111561146157611460611404565b5b92915050565b7f4e487b7100000000000000000000000000000000000000000000000000000000600052603260045260246000fd5b60006114a182610e0c565b91506114ac83610e0c565b92508282019050808211156114c4576114c3611404565b5b92915050565b7f4e487b7100000000000000000000000000000000000000000000000000000000600052602260045260246000fd5b6000600282049050600182168061151157607f821691505b602082108103611524576115236114ca565b5b50919050565b7f576569676874206d7573742062652067726561746572207468616e207a65726f60008201527f2100000000000000000000000000000000000000000000000000000000000000602082015250565b600061158660218361117d565b91506115918261152a565b604082019050919050565b600060208201905081810360008301526115b581611579565b9050919050565b7f44656c656761746f72732063616e6e6f74207265776569676874210000000000600082015250565b60006115f2601b8361117d565b91506115fd826115bc565b602082019050919050565b60006020820190508181036000830152611621816115e5565b9050919050565b7f4e487b7100000000000000000000000000000000000000000000000000000000600052604160045260246000fd5b600061166282610e0c565b91507fffffffffffffffffffffffffffffffffffffffffffffffffffffffffffffffff820361169457611693611404565b5b600182019050919050565b7f596f752063616e6e6f742064656c656761746520746f20796f757273656c6621600082015250565b60006116d560208361117d565b91506116e08261169f565b602082019050919050565b60006020820190508181036000830152611704816116c8565b9050919050565b7f43616e6e6f742063726561746520612063697263756c61722064656c6567617460008201527f696f6e2100000000000000000000000000000000000000000000000000000000602082015250565b600061176760248361117d565b91506117728261170b565b604082019050919050565b600060208201905081810360008301526117968161175a565b905091905056fea2646970667358221220720b28afb7e7d0808e7298f72ec0ac599334aa00d2fedaf68e44d4bad08639c164736f6c63430008130033",
  "immutableReferences": {},
  "source": "pragma solidity ^0.8.0;\n\ncontract Voting {\n\n    struct Candidate {\n        uint256 id;\n        string name;\n        uint256 voteCount;\n    }\n\n    struct Voter {\n        bool voted;\n        uint256 candidateId;\n        uint256 weight;\n        address delegate;\n    }\n\n    mapping(address => Voter) public voters;\n    Candidate[] public candidates;\n    uint256 public candidatesCount;\n\n    event Voted(address indexed voter, uint256 candidateId);\n    event Delegated(address indexed delegator, address indexed delegate);\n\n    constructor() {\n        addCandidate(\"Candidate 1\");\n        addCandidate(\"Candidate 2\");\n    }\n\n    function addCandidate(string memory _name) private {\n        candidatesCount++;\n        candidates.push(Candidate(candidatesCount, _name, 0));\n    }\n\n    function getVotesForCandidates() public view returns (uint256[] memory) {\n        uint256[] memory votes = new uint256[](candidatesCount);\n        for (uint256 i = 0; i < candidatesCount; i++) {\n            votes[i] = candidates[i].voteCount;\n        }\n        return votes;\n    }\n\n    function delegate(address _delegate) public {\n        Voter storage sender = voters[msg.sender];\n        require(!sender.voted, \"You have already voted!\");\n        require(_delegate != msg.sender, \"You cannot delegate to yourself!\");\n\n        while (voters[_delegate].delegate != address(0)) {\n            _delegate = voters[_delegate].delegate;\n            require(_delegate != msg.sender, \"Cannot create a circular delegation!\");\n        }\n\n        sender.voted = true;\n        sender.delegate = _delegate;\n\n        Voter storage delegateVoter = voters[_delegate];\n        if (delegateVoter.voted) {\n            candidates[delegateVoter.candidateId - 1].voteCount += sender.weight;\n        } else {\n            delegateVoter.weight += sender.weight;\n        }\n\n        emit Delegated(msg.sender, _delegate);\n    }\n\n    function vote(uint256 _candidateId) public {\n        Voter storage sender = voters[msg.sender];\n        require(!sender.voted, \"You have already voted!\");\n\n        sender.voted = true;\n        sender.candidateId = _candidateId;\n        candidates[_candidateId - 1].voteCount += sender.weight;\n\n        emit Voted(msg.sender, _candidateId);\n    }\n\n    function reweight(address _voter, uint256 _weight) public {\n        require(_weight > 0, \"Weight must be greater than zero!\");\n\n        Voter storage sender = voters[msg.sender];\n        require(sender.delegate == address(0), \"Delegators cannot reweight!\");\n        require(!sender.voted, \"You have already voted!\");\n\n        voters[_voter].weight = _weight;\n    }\n\n    function getDelegatedVotes(address _voter) public view returns (uint256) {\n        Voter storage delegateVoter = voters[_voter];\n        require(delegateVoter.delegate != address(0), \"This voter has not delegated their vote!\");\n        require(_voter != msg.sender, \"Cannot query your own delegation!\");\n\n        return voters[delegateVoter.delegate].weight;\n    }\n\n    function getCandidates() public view returns (Candidate[] memory) {\n        return candidates;\n    }\n}",
  "sourcePath": "/mnt/c/Users/rknai/PycharmProjects/Python-OpenAI_API/SolSmartContract/contracts/SOLFile.sol",
  "compiler": {
    "name": "solc",
    "version": "0.8.19+commit.7dd6d404.Emscripten.clang"
  },
  "schemaVersion": "3.4.13",
  "updatedAt": "2023-06-13T06:51:51.383Z",
  "networkType": "ethereum",
  "devdoc": {
    "kind": "dev",
    "methods": {},
    "version": 1
  },
  "userdoc": {
    "kind": "user",
    "methods": {},
    "version": 1
  }
}